S02800004F6E2D64656D616E642054726166666963204C6967687420436F6E7465726F6C2E737265634C
S11300000C9432000C9481030C94A8030C94CF0339
S11300100C944F000C944F000C944F000C944F0020
S11300200C944F000C944F000C944F000C94BB04A0
S11300300C944F000C944F000C944F000C944F0000
S11300400C944F000C944F000C944F000C944F00F0
S11300500C944F004E04580462046C04760480042B
S11300608A04940411241FBECFE5D8E0DEBFCDBFBF
S113007010E0A0E6B0E0E4EDF9E002C005900D92D6
S1130080A236B107D9F720E0A2E6B0E001C01D9284
S1130090AE36B207E1F70E94AE010C94E8040C946A
S11300A000008091620090916100891720F48F5FB5
S11300B08093620008951092620080916300909191
S11300C060008917A8F48F5F8093630080916D00AE
S11300D0833029F080916C00833009F06DC061E0B9
S11300E080E00E94A80161E081E00E94A8010895D7
S11300F01092630080916D00813039F0E8F0823015
S113010009F446C0833079F1089582E080936D004C
S113011083E080936C0060E081E00E949A0162E0D9
S113012080E00E949A0161E080E00E94A10161E008
S113013081E00E94A101089583E080936D0082E034
S113014080936C0062E081E00E949A0160E080E0AC
S11301500E949A0161E080E00E94A10161E081E0D7
S11301600E94A101089581E080936D0010926C00BB
S113017061E00E949A0161E080E00E949A0162E0DD
S113018080E00E94A10160E081E00E94A101089545
S113019010926D0081E080936C0061E00E949A01EE
S11301A061E080E00E949A0160E080E00E94A10189
S11301B062E081E00E94A101089580916C00813089
S11301C071F028F0823049F1833079F1089510926A
S11301D063001092620080E00E94B90408951092B6
S11301E063001092620080E00E94B90483E080936F
S11301F06D0082E080936C0062E081E00E949A01CD
S113020060E080E00E949A0161E080E00E94A10128
S113021061E081E00E94A1010895109263001092B0
S1130220620080E00E94B904089510926300109265
S1130230620080E00E94B90483E080936D0082E054
S113024080936C0062E081E00E949A0160E080E0AB
S11302500E949A0161E080E00E94A10161E081E0D6
S11302600E94A10108958EE1809361008091600055
S1130270880F8093600008950E94330183E0809387
S11302806C0082E080936D0060E080E00E94930146
S113029060E080E00E949A0161E080E00E949301A6
S11302A061E080E00E94A10162E080E00E9493018D
S11302B062E080E00E949A0160E081E00E94930184
S11302C060E081E00E949A0161E081E00E94930174
S11302D061E081E00E94A10162E081E00E9493015B
S11302E062E081E00E949A0140E061E080E00E94C7
S11302F0F9026DED70E080E00E94570380E00E94F7
S11303006C0360E080E00E94F60381E590E00E94C7
S11303103D0461E080E00E949E0440E060E082E0F1
S11303200E9442040895982F862F41E0692F0E946D
S1130330B1010895982F862F40E0692F0E9437025B
S11303400895982F862F41E0692F0E94370208955F
S1130350982F862F692F0E94BD0208950E943C01A8
S1130360FFCF613039F138F0623009F442C06330B4
S113037009F45EC00895413069F44AB321E030E0E5
S1130380B90102C0660F771F8A95E2F7CB01842B6F
S11303908ABB089541116AC04AB321E030E0B90133
S11303A002C0660F771F8A95E2F7CB0180958423FC
S11303B08ABB0895413069F447B321E030E0B901C4
S11303C002C0660F771F8A95E2F7CB01842B87BBA7
S11303D0089541114BC047B321E030E0B90102C098
S11303E0660F771F8A95E2F7CB018095842387BB3C
S11303F00895413069F444B321E030E0B90102C00A
S1130400660F771F8A95E2F7CB01842B84BB08958E
S113041041112CC044B321E030E0B90102C0660FA1
S1130420771F8A95E2F7CB018095842384BB0895D6
S1130430413069F441B321E030E0B90102C0660FF4
S1130440771F8A95E2F7CB01842B81BB0895411174
S11304500DC041B321E030E0B90102C0660F771F3F
S11304608A95E2F7CB018095842381BB089561309E
S113047039F138F0623009F442C0633009F45EC0E7
S11304800895413069F44BB321E030E0B90102C072
S1130490660F771F8A95E2F7CB01842B8BBB0895F7
S11304A041116AC04BB321E030E0B90102C0660FCC
S11304B0771F8A95E2F7CB01809584238BBB08953F
S11304C0413069F448B321E030E0B90102C0660F5D
S11304D0771F8A95E2F7CB01842B88BB08954111DD
S11304E04BC048B321E030E0B90102C0660F771F6A
S11304F08A95E2F7CB018095842388BB0895413027
S113050069F445B321E030E0B90102C0660F771FFA
S11305108A95E2F7CB01842B85BB089541112CC049
S113052045B321E030E0B90102C0660F771F8A9518
S1130530E2F7CB018095842385BB0895413069F4AB
S113054042B321E030E0B90102C0660F771F8A95FB
S1130550E2F7CB01842B82BB089541110DC042B355
S113056021E030E0B90102C0660F771F8A95E2F7F7
S1130570CB018095842382BB0895613099F028F0E3
S11305806230E9F0633041F108954BB321E030E08B
S1130590B90102C0660F771F8A95E2F7CB01842761
S11305A08BBB089548B321E030E0B90102C0660F67
S11305B0771F8A95E2F7CB01842788BB089545B35A
S11305C021E030E0B90102C0660F771F8A95E2F797
S11305D0CB01842785BB089542B321E030E0B90103
S11305E002C0660F771F8A95E2F7CB01842782BB8E
S11305F00895813059F120F0823009F44BC00895F8
S1130600613069F028F0623089F06330B1F01BC0CA
S113061085B78E7F85BF85B7826085BF14C085B7D7
S1130620816085BF85B7826085BF0DC085B78E7F29
S113063085BF85B78D7F85BF06C085B7816085BFBF
S113064085B78D7F85BF411131C0929A613069F0C1
S113065028F0623089F06330B1F0089585B78E7F59
S113066085BF85B7826085BF089585B7816085BFE2
S113067085B7826085BF089585B78E7F85BF85B7AE
S11306808D7F85BF089585B7816085BF85B78D7FD0
S113069085BF0895662319F0613029F0089584B761
S11306A08F7B84BF089584B7806484BF08958130AC
S11306B049F018F0823059F00895709369006093FE
S11306C068000895709367006093660008957093BE
S11306D06500609364000895813049F018F0823019
S11306E059F0089578948BB780648BBF08957894FB
S11306F08BB780688BBF089578948BB780628BBF6B
S113070008951F920F920FB60F9211242F933F93C7
S11307104F935F936F937F938F939F93AF93BF9305
S1130720EF93FF93E0916800F09169000995FF91C0
S1130730EF91BF91AF919F918F917F916F915F9155
S11307404F913F912F910F900FBE0F901F901895CE
S11307501F920F920FB60F9211242F933F934F9332
S11307605F936F937F938F939F93AF93BF93EF9315
S1130770FF93E0916600F09167000995FF91EF9176
S1130780BF91AF919F918F917F916F915F914F91A5
S11307903F912F910F900FBE0F901F9018951F92AD
S11307A00F920FB60F9211242F933F934F935F93A1
S11307B06F937F938F939F93AF93BF93EF93FF9325
S11307C0E0916400F09165000995FF91EF91BF916C
S11307D0AF919F918F917F916F915F914F913F91D5
S11307E02F910F900FBE0F901F901895813069F0D4
S11307F028F0823089F08330B1F01BC083B78F7B3F
S113080083BF83B7877F83BF14C083B7806483BFEC
S113081083B7877F83BF0DC083B78F7B83BF83B7C5
S1130820886083BF06C083B7806483BF83B7886052
S113083083BF613069F028F0623089F06330B1F031
S1130840089583B78F7E83BF83B78F7D83BF089559
S113085083B7806183BF83B78F7D83BF089583B7D8
S11308608F7E83BF83B7806283BF089583B780611F
S113087083BF83B7806283BF089590936B00809396
S11308806A0008954CBF62BF90E08830910508F07B
S113089054C0FC01E65DFF4F0C94E20483B78E7FE5
S11308A083BF83B78D7F83BF83B78B7F83BF089557
S11308B083B7816083BF83B78D7F83BF83B78B7F0B
S11308C083BF089583B78E7F83BF83B7826083BF5E
S11308D083B78B7F83BF089583B7816083BF83B75A
S11308E0826083BF83B78B7F83BF089583B78E7F76
S11308F083BF83B78D7F83BF83B7846083BF08952D
S113090083B7816083BF83B78D7F83BF83B78460E0
S113091083BF089583B78E7F83BF83B7826083BF0D
S113092083B7846083BF089583B7816083BF83B72F
S1130930826083BF83B7846083BF0895882319F0DE
S1130940813031F008C0789489B7816089BF03C0D1
S113095089B78E7F89BF662319F0613031F008951D
S1130960789489B7826089BF089589B78D7F89BFDC
S1130970089582BF08951F920F920FB60F9211240B
S11309802F933F934F935F936F937F938F939F9393
S1130990AF93BF93EF93FF93E0916A00F0916B00E4
S11309A00995FF91EF91BF91AF919F918F917F91A5
S11309B06F915F914F913F912F910F900FBE0F90C8
S11309C01F901895EE0FFF1F0590F491E02D0994E8
S10709D0F894FFCFC5
S10509D4050315
S9030000FC
